:020000020000FC
:100000000FEF0DBF08E00EBF00E007B90FEF08B912
:100010000FEF04B90AB91FEF20E050E006B1101746
:10002000E9F30E94500006B11017C1F3102F01FD33
:100030000E94280002FD0E94280004FD0E94330057
:1000400005FD0E94330000FDE9CF0E943C00E6CF91
:100050007F7002FD0E94460001FD0E944A00207F41
:10006000720F7BB90895707F05FD5A9504FD539575
:100070005F70750F7BB9089560EF2295620F22952E
:10008000651F60F02C986F7065B9089522952A95C8
:100090002295089522952395229508952C9A0895E6
:1000A00030E080E033953030E9F783958030D1F748
:0200B0000895B1
:00000001FF
